{
  "_format": "hh3-artifact-1",
  "contractName": "CertificateContract",
  "sourceName": "contracts/Certificate.sol",
  "abi": [
    {
      "inputs": [],
      "stateMutability": "nonpayable",
      "type": "constructor"
    },
    {
      "anonymous": false,
      "inputs": [
        {
          "indexed": false,
          "internalType": "string",
          "name": "certificateHash",
          "type": "string"
        },
        {
          "indexed": false,
          "internalType": "string",
          "name": "studentName",
          "type": "string"
        },
        {
          "indexed": false,
          "internalType": "address",
          "name": "issuer",
          "type": "address"
        }
      ],
      "name": "CertificateIssued",
      "type": "event"
    },
    {
      "anonymous": false,
      "inputs": [
        {
          "indexed": false,
          "internalType": "string",
          "name": "certificateHash",
          "type": "string"
        }
      ],
      "name": "CertificateRevoked",
      "type": "event"
    },
    {
      "anonymous": false,
      "inputs": [
        {
          "indexed": false,
          "internalType": "string",
          "name": "certificateHash",
          "type": "string"
        },
        {
          "indexed": false,
          "internalType": "address",
          "name": "verifier",
          "type": "address"
        },
        {
          "indexed": false,
          "internalType": "bool",
          "name": "isValid",
          "type": "bool"
        }
      ],
      "name": "VerificationLog",
      "type": "event"
    },
    {
      "inputs": [
        {
          "internalType": "address",
          "name": "_issuer",
          "type": "address"
        }
      ],
      "name": "addAuthorizedIssuer",
      "outputs": [],
      "stateMutability": "nonpayable",
      "type": "function"
    },
    {
      "inputs": [
        {
          "internalType": "address",
          "name": "",
          "type": "address"
        }
      ],
      "name": "authorizedIssuers",
      "outputs": [
        {
          "internalType": "bool",
          "name": "",
          "type": "bool"
        }
      ],
      "stateMutability": "view",
      "type": "function"
    },
    {
      "inputs": [
        {
          "internalType": "string",
          "name": "",
          "type": "string"
        }
      ],
      "name": "certificates",
      "outputs": [
        {
          "internalType": "string",
          "name": "studentName",
          "type": "string"
        },
        {
          "internalType": "string",
          "name": "courseName",
          "type": "string"
        },
        {
          "internalType": "string",
          "name": "issueDate",
          "type": "string"
        },
        {
          "internalType": "string",
          "name": "certificateHash",
          "type": "string"
        },
        {
          "internalType": "bool",
          "name": "isValid",
          "type": "bool"
        },
        {
          "internalType": "address",
          "name": "issuer",
          "type": "address"
        }
      ],
      "stateMutability": "view",
      "type": "function"
    },
    {
      "inputs": [
        {
          "internalType": "string",
          "name": "_certificateHash",
          "type": "string"
        }
      ],
      "name": "getCertificateDetails",
      "outputs": [
        {
          "internalType": "string",
          "name": "studentName",
          "type": "string"
        },
        {
          "internalType": "string",
          "name": "courseName",
          "type": "string"
        },
        {
          "internalType": "string",
          "name": "issueDate",
          "type": "string"
        },
        {
          "internalType": "bool",
          "name": "isValid",
          "type": "bool"
        }
      ],
      "stateMutability": "view",
      "type": "function"
    },
    {
      "inputs": [
        {
          "internalType": "string",
          "name": "_studentName",
          "type": "string"
        },
        {
          "internalType": "string",
          "name": "_courseName",
          "type": "string"
        },
        {
          "internalType": "string",
          "name": "_issueDate",
          "type": "string"
        },
        {
          "internalType": "string",
          "name": "_certificateHash",
          "type": "string"
        }
      ],
      "name": "issueCertificate",
      "outputs": [],
      "stateMutability": "nonpayable",
      "type": "function"
    },
    {
      "inputs": [
        {
          "internalType": "string",
          "name": "_certificateHash",
          "type": "string"
        }
      ],
      "name": "revokeCertificate",
      "outputs": [],
      "stateMutability": "nonpayable",
      "type": "function"
    },
    {
      "inputs": [
        {
          "internalType": "string",
          "name": "_certificateHash",
          "type": "string"
        }
      ],
      "name": "verifyCertificate",
      "outputs": [
        {
          "internalType": "bool",
          "name": "",
          "type": "bool"
        },
        {
          "internalType": "string",
          "name": "",
          "type": "string"
        },
        {
          "internalType": "string",
          "name": "",
          "type": "string"
        },
        {
          "internalType": "string",
          "name": "",
          "type": "string"
        }
      ],
      "stateMutability": "nonpayable",
      "type": "function"
    }
  ],
  "bytecode": "0x6080604052348015600e575f5ffd5b506001805f3373ffffffffffffffffffffffffffffffffffffffff1673ffffffffffffffffffffffffffffffffffffffff1681526020019081526020015f205f6101000a81548160ff021916908315150217905550611b8c806100705f395ff3fe608060405234801561000f575f5ffd5b506004361061007b575f3560e01c80638f2b91ea116100595780638f2b91ea146100ea5780639c2b1d211461011f578063f731fa0f1461013b578063fa433b361461016b5761007b565b8063142e15421461007f578063818a29941461009b5780638b23d875146100b7575b5f5ffd5b6100996004803603810190610094919061125f565b61019e565b005b6100b560048036038101906100b091906112a6565b6103f4565b005b6100d160048036038101906100cc919061125f565b61068e565b6040516100e194939291906113f4565b60405180910390f35b61010460048036038101906100ff919061125f565b610a7f565b6040516101169695949392919061148b565b60405180910390f35b61013960048036038101906101349190611530565b610d12565b005b61015560048036038101906101509190611530565b610df2565b604051610162919061155b565b60405180910390f35b6101856004803603810190610180919061125f565b610e0f565b6040516101959493929190611574565b60405180910390f35b60015f3373ffffffffffffffffffffffffffffffffffffffff1673ffffffffffffffffffffffffffffffffffffffff1681526020019081526020015f205f9054906101000a900460ff16610227576040517f08c379a000000000000000000000000000000000000000000000000000000000815260040161021e9061163c565b60405180910390fd5b5f73ffffffffffffffffffffffffffffffffffffffff165f8260405161024d9190611694565b908152602001604051809103902060040160019054906101000a900473ffffffffffffffffffffffffffffffffffffffff1673ffffffffffffffffffffffffffffffffffffffff16036102d5576040517f08c379a00000000000000000000000000000000000000000000000000000000081526004016102cc906116f4565b60405180910390fd5b3373ffffffffffffffffffffffffffffffffffffffff165f826040516102fb9190611694565b908152602001604051809103902060040160019054906101000a900473ffffffffffffffffffffffffffffffffffffffff1673ffffffffffffffffffffffffffffffffffffffff1614610383576040517f08c379a000000000000000000000000000000000000000000000000000000000815260040161037a9061175c565b60405180910390fd5b5f5f826040516103939190611694565b90815260200160405180910390206004015f6101000a81548160ff0219169083151502179055507f266095b5af7e2323760fef151f1d78896740cd2cc1b73a6357ff9e4c3fdae740816040516103e9919061177a565b60405180910390a150565b60015f3373ffffffffffffffffffffffffffffffffffffffff1673ffffffffffffffffffffffffffffffffffffffff1681526020019081526020015f205f9054906101000a900460ff1661047d576040517f08c379a00000000000000000000000000000000000000000000000000000000081526004016104749061163c565b60405180910390fd5b5f73ffffffffffffffffffffffffffffffffffffffff165f826040516104a39190611694565b908152602001604051809103902060040160019054906101000a900473ffffffffffffffffffffffffffffffffffffffff1673ffffffffffffffffffffffffffffffffffffffff161461052b576040517f08c379a0000000000000000000000000000000000000000000000000000000008152600401610522906117e4565b60405180910390fd5b6040518060c001604052808581526020018481526020018381526020018281526020016001151581526020013373ffffffffffffffffffffffffffffffffffffffff168152505f826040516105809190611694565b90815260200160405180910390205f820151815f0190816105a19190611a08565b5060208201518160010190816105b79190611a08565b5060408201518160020190816105cd9190611a08565b5060608201518160030190816105e39190611a08565b506080820151816004015f6101000a81548160ff02191690831515021790555060a08201518160040160016101000a81548173ffffffffffffffffffffffffffffffffffffffff021916908373ffffffffffffffffffffffffffffffffffffffff1602179055509050507f03f262da71aacb4fd3ac953d335e55d4e2ea91176b1a20485c500341130b10e081853360405161068093929190611ad7565b60405180910390a150505050565b5f60608060605f5f866040516106a49190611694565b90815260200160405180910390206040518060c00160405290815f820180546106cc9061182f565b80601f01602080910402602001604051908101604052809291908181526020018280546106f89061182f565b80156107435780601f1061071a57610100808354040283529160200191610743565b820191905f5260205f20905b81548152906001019060200180831161072657829003601f168201915b5050505050815260200160018201805461075c9061182f565b80601f01602080910402602001604051908101604052809291908181526020018280546107889061182f565b80156107d35780601f106107aa576101008083540402835291602001916107d3565b820191905f5260205f20905b8154815290600101906020018083116107b657829003601f168201915b505050505081526020016002820180546107ec9061182f565b80601f01602080910402602001604051908101604052809291908181526020018280546108189061182f565b80156108635780601f1061083a57610100808354040283529160200191610863565b820191905f5260205f20905b81548152906001019060200180831161084657829003601f168201915b5050505050815260200160038201805461087c9061182f565b80601f01602080910402602001604051908101604052809291908181526020018280546108a89061182f565b80156108f35780601f106108ca576101008083540402835291602001916108f3565b820191905f5260205f20905b8154815290600101906020018083116108d657829003601f168201915b50505050508152602001600482015f9054906101000a900460ff161515151581526020016004820160019054906101000a900473ffffffffffffffffffffffffffffffffffffffff1673ffffffffffffffffffffffffffffffffffffffff1673ffffffffffffffffffffffffffffffffffffffff168152505090505f73ffffffffffffffffffffffffffffffffffffffff168160a0015173ffffffffffffffffffffffffffffffffffffffff1603610a1c577f325da11fbb46e802b2c47344497363a67ad1ed9fb25d2984720fa93f2175898486335f6040516109d893929190611b1a565b60405180910390a15f60405180602001604052805f81525060405180602001604052805f81525060405180602001604052805f815250945094509450945050610a78565b7f325da11fbb46e802b2c47344497363a67ad1ed9fb25d2984720fa93f2175898486338360800151604051610a5393929190611b1a565b60405180910390a18060800151815f0151826020015183604001519450945094509450505b9193509193565b5f818051602081018201805184825260208301602085012081835280955050505050505f91509050805f018054610ab59061182f565b80601f0160208091040260200160405190810160405280929190818152602001828054610ae19061182f565b8015610b2c5780601f10610b0357610100808354040283529160200191610b2c565b820191905f5260205f20905b815481529060010190602001808311610b0f57829003601f168201915b505050505090806001018054610b419061182f565b80601f0160208091040260200160405190810160405280929190818152602001828054610b6d9061182f565b8015610bb85780601f10610b8f57610100808354040283529160200191610bb8565b820191905f5260205f20905b815481529060010190602001808311610b9b57829003601f168201915b505050505090806002018054610bcd9061182f565b80601f0160208091040260200160405190810160405280929190818152602001828054610bf99061182f565b8015610c445780601f10610c1b57610100808354040283529160200191610c44565b820191905f5260205f20905b815481529060010190602001808311610c2757829003601f168201915b505050505090806003018054610c599061182f565b80601f0160208091040260200160405190810160405280929190818152602001828054610c859061182f565b8015610cd05780601f10610ca757610100808354040283529160200191610cd0565b820191905f5260205f20905b815481529060010190602001808311610cb357829003601f168201915b505050505090806004015f9054906101000a900460ff16908060040160019054906101000a900473ffffffffffffffffffffffffffffffffffffffff16905086565b60015f3373ffffffffffffffffffffffffffffffffffffffff1673ffffffffffffffffffffffffffffffffffffffff1681526020019081526020015f205f9054906101000a900460ff16610d9b576040517f08c379a0000000000000000000000000000000000000000000000000000000008152600401610d929061163c565b60405180910390fd5b6001805f8373ffffffffffffffffffffffffffffffffffffffff1673ffffffffffffffffffffffffffffffffffffffff1681526020019081526020015f205f6101000a81548160ff02191690831515021790555050565b6001602052805f5260405f205f915054906101000a900460ff1681565b60608060605f5f5f86604051610e259190611694565b90815260200160405180910390206040518060c00160405290815f82018054610e4d9061182f565b80601f0160208091040260200160405190810160405280929190818152602001828054610e799061182f565b8015610ec45780601f10610e9b57610100808354040283529160200191610ec4565b820191905f5260205f20905b815481529060010190602001808311610ea757829003601f168201915b50505050508152602001600182018054610edd9061182f565b80601f0160208091040260200160405190810160405280929190818152602001828054610f099061182f565b8015610f545780601f10610f2b57610100808354040283529160200191610f54565b820191905f5260205f20905b815481529060010190602001808311610f3757829003601f168201915b50505050508152602001600282018054610f6d9061182f565b80601f0160208091040260200160405190810160405280929190818152602001828054610f999061182f565b8015610fe45780601f10610fbb57610100808354040283529160200191610fe4565b820191905f5260205f20905b815481529060010190602001808311610fc757829003601f168201915b50505050508152602001600382018054610ffd9061182f565b80601f01602080910402602001604051908101604052809291908181526020018280546110299061182f565b80156110745780601f1061104b57610100808354040283529160200191611074565b820191905f5260205f20905b81548152906001019060200180831161105757829003601f168201915b50505050508152602001600482015f9054906101000a900460ff161515151581526020016004820160019054906101000a900473ffffffffffffffffffffffffffffffffffffffff1673ffffffffffffffffffffffffffffffffffffffff1673ffffffffffffffffffffffffffffffffffffffff16815250509050805f01518160200151826040015183608001519450945094509450509193509193565b5f604051905090565b5f5ffd5b5f5ffd5b5f5ffd5b5f5ffd5b5f601f19601f8301169050919050565b7f4e487b71000000000000000000000000000000000000000000000000000000005f52604160045260245ffd5b6111718261112b565b810181811067ffffffffffffffff821117156111905761118f61113b565b5b80604052505050565b5f6111a2611112565b90506111ae8282611168565b919050565b5f67ffffffffffffffff8211156111cd576111cc61113b565b5b6111d68261112b565b9050602081019050919050565b828183375f83830152505050565b5f6112036111fe846111b3565b611199565b90508281526020810184848401111561121f5761121e611127565b5b61122a8482856111e3565b509392505050565b5f82601f83011261124657611245611123565b5b81356112568482602086016111f1565b91505092915050565b5f602082840312156112745761127361111b565b5b5f82013567ffffffffffffffff8111156112915761129061111f565b5b61129d84828501611232565b91505092915050565b5f5f5f5f608085870312156112be576112bd61111b565b5b5f85013567ffffffffffffffff8111156112db576112da61111f565b5b6112e787828801611232565b945050602085013567ffffffffffffffff8111156113085761130761111f565b5b61131487828801611232565b935050604085013567ffffffffffffffff8111156113355761133461111f565b5b61134187828801611232565b925050606085013567ffffffffffffffff8111156113625761136161111f565b5b61136e87828801611232565b91505092959194509250565b5f8115159050919050565b61138e8161137a565b82525050565b5f81519050919050565b5f82825260208201905092915050565b8281835e5f83830152505050565b5f6113c682611394565b6113d0818561139e565b93506113e08185602086016113ae565b6113e98161112b565b840191505092915050565b5f6080820190506114075f830187611385565b818103602083015261141981866113bc565b9050818103604083015261142d81856113bc565b9050818103606083015261144181846113bc565b905095945050505050565b5f73ffffffffffffffffffffffffffffffffffffffff82169050919050565b5f6114758261144c565b9050919050565b6114858161146b565b82525050565b5f60c0820190508181035f8301526114a381896113bc565b905081810360208301526114b781886113bc565b905081810360408301526114cb81876113bc565b905081810360608301526114df81866113bc565b90506114ee6080830185611385565b6114fb60a083018461147c565b979650505050505050565b61150f8161146b565b8114611519575f5ffd5b50565b5f8135905061152a81611506565b92915050565b5f602082840312156115455761154461111b565b5b5f6115528482850161151c565b91505092915050565b5f60208201905061156e5f830184611385565b92915050565b5f6080820190508181035f83015261158c81876113bc565b905081810360208301526115a081866113bc565b905081810360408301526115b481856113bc565b90506115c36060830184611385565b95945050505050565b7f4e6f7420617574686f72697a656420746f2069737375652063657274696669635f8201527f6174657300000000000000000000000000000000000000000000000000000000602082015250565b5f61162660248361139e565b9150611631826115cc565b604082019050919050565b5f6020820190508181035f8301526116538161161a565b9050919050565b5f81905092915050565b5f61166e82611394565b611678818561165a565b93506116888185602086016113ae565b80840191505092915050565b5f61169f8284611664565b915081905092915050565b7f436572746966696361746520646f6573206e6f742065786973740000000000005f82015250565b5f6116de601a8361139e565b91506116e9826116aa565b602082019050919050565b5f6020820190508181035f83015261170b816116d2565b9050919050565b7f4f6e6c79206973737565722063616e207265766f6b65000000000000000000005f82015250565b5f61174660168361139e565b915061175182611712565b602082019050919050565b5f6020820190508181035f8301526117738161173a565b9050919050565b5f6020820190508181035f83015261179281846113bc565b905092915050565b7f436572746966696361746520616c7265616479206578697374730000000000005f82015250565b5f6117ce601a8361139e565b91506117d98261179a565b602082019050919050565b5f6020820190508181035f8301526117fb816117c2565b9050919050565b7f4e487b71000000000000000000000000000000000000000000000000000000005f52602260045260245ffd5b5f600282049050600182168061184657607f821691505b60208210810361185957611858611802565b5b50919050565b5f819050815f5260205f209050919050565b5f6020601f8301049050919050565b5f82821b905092915050565b5f600883026118bb7fffffffffffffffffffffffffffffffffffffffffffffffffffffffffffffffff82611880565b6118c58683611880565b95508019841693508086168417925050509392505050565b5f819050919050565b5f819050919050565b5f6119096119046118ff846118dd565b6118e6565b6118dd565b9050919050565b5f819050919050565b611922836118ef565b61193661192e82611910565b84845461188c565b825550505050565b5f5f905090565b61194d61193e565b611958818484611919565b505050565b5b8181101561197b576119705f82611945565b60018101905061195e565b5050565b601f8211156119c0576119918161185f565b61199a84611871565b810160208510156119a9578190505b6119bd6119b585611871565b83018261195d565b50505b505050565b5f82821c905092915050565b5f6119e05f19846008026119c5565b1980831691505092915050565b5f6119f883836119d1565b9150826002028217905092915050565b611a1182611394565b67ffffffffffffffff811115611a2a57611a2961113b565b5b611a34825461182f565b611a3f82828561197f565b5f60209050601f831160018114611a70575f8415611a5e578287015190505b611a6885826119ed565b865550611acf565b601f198416611a7e8661185f565b5f5b82811015611aa557848901518255600182019150602085019450602081019050611a80565b86831015611ac25784890151611abe601f8916826119d1565b8355505b6001600288020188555050505b505050505050565b5f6060820190508181035f830152611aef81866113bc565b90508181036020830152611b0381856113bc565b9050611b12604083018461147c565b949350505050565b5f6060820190508181035f830152611b3281866113bc565b9050611b41602083018561147c565b611b4e6040830184611385565b94935050505056fea2646970667358221220637b110957b1607b7e4b15106b892c67d5ca74e5a758ee818e3861c88360a0f464736f6c634300081c0033",
  "linkReferences": {},
  "deployedLinkReferences": {},
  "immutableReferences": {},
  "inputSourceName": "project/contracts/Certificate.sol",
  "buildInfoId": "solc-0_8_28-2ce2cc033f81239af6d8de0f3fef76c267b6609a"
}